{
  "contractName": "SimpleStorage",
  "abi": [
    {
      "constant": true,
      "inputs": [
        {
          "internalType": "address",
          "name": "",
          "type": "address"
        }
      ],
      "name": "my_hospital_struct",
      "outputs": [
        {
          "internalType": "address",
          "name": "owner",
          "type": "address"
        },
        {
          "internalType": "string",
          "name": "name",
          "type": "string"
        },
        {
          "internalType": "string",
          "name": "password",
          "type": "string"
        }
      ],
      "payable": false,
      "stateMutability": "view",
      "type": "function"
    },
    {
      "constant": true,
      "inputs": [
        {
          "internalType": "address",
          "name": "",
          "type": "address"
        }
      ],
      "name": "my_lab_struct",
      "outputs": [
        {
          "internalType": "address",
          "name": "owner",
          "type": "address"
        },
        {
          "internalType": "string",
          "name": "name",
          "type": "string"
        },
        {
          "internalType": "string",
          "name": "password",
          "type": "string"
        }
      ],
      "payable": false,
      "stateMutability": "view",
      "type": "function"
    },
    {
      "constant": true,
      "inputs": [
        {
          "internalType": "address",
          "name": "",
          "type": "address"
        }
      ],
      "name": "my_patient_struct",
      "outputs": [
        {
          "internalType": "address",
          "name": "owner",
          "type": "address"
        },
        {
          "internalType": "address",
          "name": "relation",
          "type": "address"
        },
        {
          "internalType": "string",
          "name": "name",
          "type": "string"
        },
        {
          "internalType": "string",
          "name": "password",
          "type": "string"
        },
        {
          "internalType": "uint256",
          "name": "age",
          "type": "uint256"
        },
        {
          "internalType": "uint256",
          "name": "bp",
          "type": "uint256"
        },
        {
          "internalType": "uint256",
          "name": "heart_attack",
          "type": "uint256"
        },
        {
          "internalType": "uint256",
          "name": "diabetes_level",
          "type": "uint256"
        },
        {
          "internalType": "uint256",
          "name": "gender",
          "type": "uint256"
        },
        {
          "internalType": "uint256",
          "name": "oxidation",
          "type": "uint256"
        },
        {
          "internalType": "uint256",
          "name": "cancer",
          "type": "uint256"
        },
        {
          "internalType": "uint256",
          "name": "covid",
          "type": "uint256"
        },
        {
          "internalType": "uint256",
          "name": "updated_date",
          "type": "uint256"
        }
      ],
      "payable": false,
      "stateMutability": "view",
      "type": "function"
    },
    {
      "constant": false,
      "inputs": [
        {
          "internalType": "address",
          "name": "owner",
          "type": "address"
        },
        {
          "internalType": "address",
          "name": "relation",
          "type": "address"
        },
        {
          "internalType": "string",
          "name": "name",
          "type": "string"
        },
        {
          "internalType": "string",
          "name": "password",
          "type": "string"
        },
        {
          "internalType": "uint256",
          "name": "age",
          "type": "uint256"
        },
        {
          "internalType": "uint256",
          "name": "bp",
          "type": "uint256"
        },
        {
          "internalType": "uint256",
          "name": "heart_attack",
          "type": "uint256"
        },
        {
          "internalType": "uint256",
          "name": "diabetes_level",
          "type": "uint256"
        },
        {
          "internalType": "uint256",
          "name": "gender",
          "type": "uint256"
        },
        {
          "internalType": "uint256",
          "name": "oxidation",
          "type": "uint256"
        },
        {
          "internalType": "uint256",
          "name": "cancer",
          "type": "uint256"
        },
        {
          "internalType": "uint256",
          "name": "covid",
          "type": "uint256"
        },
        {
          "internalType": "uint256",
          "name": "updated_date",
          "type": "uint256"
        }
      ],
      "name": "signup_patients",
      "outputs": [],
      "payable": false,
      "stateMutability": "nonpayable",
      "type": "function"
    },
    {
      "constant": false,
      "inputs": [
        {
          "internalType": "address",
          "name": "owner",
          "type": "address"
        },
        {
          "internalType": "string",
          "name": "name",
          "type": "string"
        },
        {
          "internalType": "string",
          "name": "password",
          "type": "string"
        }
      ],
      "name": "signup_hospitals",
      "outputs": [],
      "payable": false,
      "stateMutability": "nonpayable",
      "type": "function"
    },
    {
      "constant": false,
      "inputs": [
        {
          "internalType": "address",
          "name": "owner",
          "type": "address"
        },
        {
          "internalType": "string",
          "name": "name",
          "type": "string"
        },
        {
          "internalType": "string",
          "name": "password",
          "type": "string"
        }
      ],
      "name": "signup_labs",
      "outputs": [],
      "payable": false,
      "stateMutability": "nonpayable",
      "type": "function"
    },
    {
      "constant": true,
      "inputs": [
        {
          "internalType": "address",
          "name": "ad",
          "type": "address"
        },
        {
          "internalType": "string",
          "name": "pwd",
          "type": "string"
        }
      ],
      "name": "patient_login_validate",
      "outputs": [
        {
          "internalType": "uint256",
          "name": "",
          "type": "uint256"
        }
      ],
      "payable": false,
      "stateMutability": "view",
      "type": "function"
    },
    {
      "constant": true,
      "inputs": [
        {
          "internalType": "address",
          "name": "ad",
          "type": "address"
        },
        {
          "internalType": "string",
          "name": "pwd",
          "type": "string"
        }
      ],
      "name": "hospital_login_validate",
      "outputs": [
        {
          "internalType": "uint256",
          "name": "",
          "type": "uint256"
        }
      ],
      "payable": false,
      "stateMutability": "view",
      "type": "function"
    },
    {
      "constant": true,
      "inputs": [
        {
          "internalType": "address",
          "name": "ad",
          "type": "address"
        },
        {
          "internalType": "string",
          "name": "pwd",
          "type": "string"
        }
      ],
      "name": "lab_login_validate",
      "outputs": [
        {
          "internalType": "uint256",
          "name": "",
          "type": "uint256"
        }
      ],
      "payable": false,
      "stateMutability": "view",
      "type": "function"
    },
    {
      "constant": true,
      "inputs": [
        {
          "internalType": "address",
          "name": "ad",
          "type": "address"
        }
      ],
      "name": "view_patient_info_by_owner_part1",
      "outputs": [
        {
          "internalType": "string",
          "name": "",
          "type": "string"
        },
        {
          "internalType": "uint256",
          "name": "",
          "type": "uint256"
        },
        {
          "internalType": "uint256",
          "name": "",
          "type": "uint256"
        },
        {
          "internalType": "uint256",
          "name": "",
          "type": "uint256"
        },
        {
          "internalType": "uint256",
          "name": "",
          "type": "uint256"
        },
        {
          "internalType": "uint256",
          "name": "",
          "type": "uint256"
        }
      ],
      "payable": false,
      "stateMutability": "view",
      "type": "function"
    },
    {
      "constant": true,
      "inputs": [
        {
          "internalType": "address",
          "name": "ad",
          "type": "address"
        }
      ],
      "name": "view_patient_info_by_owner_part2",
      "outputs": [
        {
          "internalType": "uint256",
          "name": "",
          "type": "uint256"
        },
        {
          "internalType": "uint256",
          "name": "",
          "type": "uint256"
        },
        {
          "internalType": "uint256",
          "name": "",
          "type": "uint256"
        },
        {
          "internalType": "uint256",
          "name": "",
          "type": "uint256"
        }
      ],
      "payable": false,
      "stateMutability": "view",
      "type": "function"
    },
    {
      "constant": true,
      "inputs": [
        {
          "internalType": "address",
          "name": "ad",
          "type": "address"
        }
      ],
      "name": "view_patient_info_by_relation_part1",
      "outputs": [
        {
          "internalType": "string",
          "name": "",
          "type": "string"
        },
        {
          "internalType": "uint256",
          "name": "",
          "type": "uint256"
        },
        {
          "internalType": "uint256",
          "name": "",
          "type": "uint256"
        },
        {
          "internalType": "uint256",
          "name": "",
          "type": "uint256"
        },
        {
          "internalType": "uint256",
          "name": "",
          "type": "uint256"
        }
      ],
      "payable": false,
      "stateMutability": "view",
      "type": "function"
    },
    {
      "constant": true,
      "inputs": [
        {
          "internalType": "address",
          "name": "ad",
          "type": "address"
        }
      ],
      "name": "view_patient_info_by_relation_part2",
      "outputs": [
        {
          "internalType": "uint256",
          "name": "",
          "type": "uint256"
        },
        {
          "internalType": "uint256",
          "name": "",
          "type": "uint256"
        },
        {
          "internalType": "uint256",
          "name": "",
          "type": "uint256"
        },
        {
          "internalType": "uint256",
          "name": "",
          "type": "uint256"
        },
        {
          "internalType": "uint256",
          "name": "",
          "type": "uint256"
        }
      ],
      "payable": false,
      "stateMutability": "view",
      "type": "function"
    },
    {
      "constant": true,
      "inputs": [
        {
          "internalType": "address",
          "name": "ad",
          "type": "address"
        }
      ],
      "name": "view_patient_by_hospital",
      "outputs": [
        {
          "internalType": "uint256",
          "name": "",
          "type": "uint256"
        }
      ],
      "payable": false,
      "stateMutability": "view",
      "type": "function"
    },
    {
      "constant": true,
      "inputs": [
        {
          "internalType": "address",
          "name": "ad",
          "type": "address"
        }
      ],
      "name": "view_patient_by_lab",
      "outputs": [
        {
          "internalType": "uint256",
          "name": "",
          "type": "uint256"
        }
      ],
      "payable": false,
      "stateMutability": "view",
      "type": "function"
    },
    {
      "constant": false,
      "inputs": [
        {
          "internalType": "address",
          "name": "owner",
          "type": "address"
        },
        {
          "internalType": "string",
          "name": "name",
          "type": "string"
        },
        {
          "internalType": "uint256",
          "name": "age",
          "type": "uint256"
        },
        {
          "internalType": "uint256",
          "name": "bp",
          "type": "uint256"
        },
        {
          "internalType": "uint256",
          "name": "heart_attack",
          "type": "uint256"
        },
        {
          "internalType": "uint256",
          "name": "diabetes_level",
          "type": "uint256"
        },
        {
          "internalType": "uint256",
          "name": "gender",
          "type": "uint256"
        },
        {
          "internalType": "uint256",
          "name": "oxidation",
          "type": "uint256"
        },
        {
          "internalType": "uint256",
          "name": "cancer",
          "type": "uint256"
        },
        {
          "internalType": "uint256",
          "name": "covid",
          "type": "uint256"
        },
        {
          "internalType": "uint256",
          "name": "updated_date",
          "type": "uint256"
        }
      ],
      "name": "update_patients",
      "outputs": [],
      "payable": false,
      "stateMutability": "nonpayable",
      "type": "function"
    }
  ],
  "bytecode": "0x608060405234801561001057600080fd5b50613243806100206000396000f3fe608060405234801561001057600080fd5b50600436106101005760003560e01c80636a4783cb11610097578063abf009f811610066578063abf009f814610e67578063af72169b14610fc3578063b35233301461101b578063f291a2461461107357610100565b80636a4783cb146108eb578063705c7fa314610ab95780637225db4f14610c2b5780639ec3ce3814610d0b57610100565b80634bd83b5a116100d35780634bd83b5a1461062c5780634e5747db1461071b57806355385ff1146107885780635cca5af5146107fc57610100565b806308f5c08a1461010557806311649b52146101de5780632b347dee146103cb5780632d1f7af8146104ba575b600080fd5b6101476004803603602081101561011b57600080fd5b81019080803573ffffffffffffffffffffffffffffffffffffffff1690602001909291905050506111a9565b6040518080602001868152602001858152602001848152602001838152602001828103825287818151815260200191508051906020019080838360005b8381101561019f578082015181840152602081019050610184565b50505050905090810190601f1680156101cc5780820380516001836020036101000a031916815260200191505b50965050505050505060405180910390f35b6103c960048036036101a08110156101f557600080fd5b81019080803573ffffffffffffffffffffffffffffffffffffffff169060200190929190803573ffffffffffffffffffffffffffffffffffffffff1690602001909291908035906020019064010000000081111561025257600080fd5b82018360208201111561026457600080fd5b8035906020019184600183028401116401000000008311171561028657600080fd5b91908080601f016020809104026020016040519081016040528093929190818152602001838380828437600081840152601f19601f820116905080830192505050505050509192919290803590602001906401000000008111156102e957600080fd5b8201836020820111156102fb57600080fd5b8035906020019184600183028401116401000000008311171561031d57600080fd5b91908080601f016020809104026020016040519081016040528093929190818152602001838380828437600081840152601f19601f82011690508083019250505050505050919291929080359060200190929190803590602001909291908035906020019092919080359060200190929190803590602001909291908035906020019092919080359060200190929190803590602001909291908035906020019092919050505061158e565b005b6104a4600480360360408110156103e157600080fd5b81019080803573ffffffffffffffffffffffffffffffffffffffff1690602001909291908035906020019064010000000081111561041e57600080fd5b82018360208201111561043057600080fd5b8035906020019184600183028401116401000000008311171561045257600080fd5b91908080601f016020809104026020016040519081016040528093929190818152602001838380828437600081840152601f19601f82011690508083019250505050505050919291929050505061190c565b6040518082815260200191505060405180910390f35b61062a600480360360608110156104d057600080fd5b81019080803573ffffffffffffffffffffffffffffffffffffffff1690602001909291908035906020019064010000000081111561050d57600080fd5b82018360208201111561051f57600080fd5b8035906020019184600183028401116401000000008311171561054157600080fd5b91908080601f016020809104026020016040519081016040528093929190818152602001838380828437600081840152601f19601f820116905080830192505050505050509192919290803590602001906401000000008111156105a457600080fd5b8201836020820111156105b657600080fd5b803590602001918460018302840111640100000000831117156105d857600080fd5b91908080601f016020809104026020016040519081016040528093929190818152602001838380828437600081840152601f19601f820116905080830192505050505050509192919290505050611a55565b005b6107056004803603604081101561064257600080fd5b81019080803573ffffffffffffffffffffffffffffffffffffffff1690602001909291908035906020019064010000000081111561067f57600080fd5b82018360208201111561069157600080fd5b803590602001918460018302840111640100000000831117156106b357600080fd5b91908080601f016020809104026020016040519081016040528093929190818152602001838380828437600081840152601f19601f820116905080830192505050505050509192919290505050611cd2565b6040518082815260200191505060405180910390f35b61075d6004803603602081101561073157600080fd5b81019080803573ffffffffffffffffffffffffffffffffffffffff169060200190929190505050611e1a565b6040518085815260200184815260200183815260200182815260200194505050505060405180910390f35b6107ca6004803603602081101561079e57600080fd5b81019080803573ffffffffffffffffffffffffffffffffffffffff169060200190929190505050611f37565b604051808681526020018581526020018481526020018381526020018281526020019550505050505060405180910390f35b6108d56004803603604081101561081257600080fd5b81019080803573ffffffffffffffffffffffffffffffffffffffff1690602001909291908035906020019064010000000081111561084f57600080fd5b82018360208201111561086157600080fd5b8035906020019184600183028401116401000000008311171561088357600080fd5b91908080601f016020809104026020016040519081016040528093929190818152602001838380828437600081840152601f19601f820116905080830192505050505050509192919290505050612281565b6040518082815260200191505060405180910390f35b61092d6004803603602081101561090157600080fd5b81019080803573ffffffffffffffffffffffffffffffffffffffff1690602001909291905050506123ca565b604051808e73ffffffffffffffffffffffffffffffffffffffff1673ffffffffffffffffffffffffffffffffffffffff1681526020018d73ffffffffffffffffffffffffffffffffffffffff1673ffffffffffffffffffffffffffffffffffffffff16815260200180602001806020018c81526020018b81526020018a815260200189815260200188815260200187815260200186815260200185815260200184815260200183810383528e818151815260200191508051906020019080838360005b83811015610a0b5780820151818401526020810190506109f0565b50505050905090810190601f168015610a385780820380516001836020036101000a031916815260200191505b5083810382528d818151815260200191508051906020019080838360005b83811015610a71578082015181840152602081019050610a56565b50505050905090810190601f168015610a9e5780820380516001836020036101000a031916815260200191505b509f5050505050505050505050505050505060405180910390f35b610c2960048036036060811015610acf57600080fd5b81019080803573ffffffffffffffffffffffffffffffffffffffff16906020019092919080359060200190640100000000811115610b0c57600080fd5b820183602082011115610b1e57600080fd5b80359060200191846001830284011164010000000083111715610b4057600080fd5b91908080601f016020809104026020016040519081016040528093929190818152602001838380828437600081840152601f19601f82011690508083019250505050505050919291929080359060200190640100000000811115610ba357600080fd5b820183602082011115610bb557600080fd5b80359060200191846001830284011164010000000083111715610bd757600080fd5b91908080601f016020809104026020016040519081016040528093929190818152602001838380828437600081840152601f19601f8201169050808301925050505050505091929192905050506125a0565b005b610c6d60048036036020811015610c4157600080fd5b81019080803573ffffffffffffffffffffffffffffffffffffffff16906020019092919050505061281d565b6040518080602001878152602001868152602001858152602001848152602001838152602001828103825288818151815260200191508051906020019080838360005b83811015610ccb578082015181840152602081019050610cb0565b50505050905090810190601f168015610cf85780820380516001836020036101000a031916815260200191505b5097505050505050505060405180910390f35b610d4d60048036036020811015610d2157600080fd5b81019080803573ffffffffffffffffffffffffffffffffffffffff169060200190929190505050612a63565b604051808473ffffffffffffffffffffffffffffffffffffffff1673ffffffffffffffffffffffffffffffffffffffff1681526020018060200180602001838103835285818151815260200191508051906020019080838360005b83811015610dc3578082015181840152602081019050610da8565b50505050905090810190601f168015610df05780820380516001836020036101000a031916815260200191505b50838103825284818151815260200191508051906020019080838360005b83811015610e29578082015181840152602081019050610e0e565b50505050905090810190601f168015610e565780820380516001836020036101000a031916815260200191505b509550505050505060405180910390f35b610ea960048036036020811015610e7d57600080fd5b81019080803573ffffffffffffffffffffffffffffffffffffffff169060200190929190505050612bdd565b604051808473ffffffffffffffffffffffffffffffffffffffff1673ffffffffffffffffffffffffffffffffffffffff1681526020018060200180602001838103835285818151815260200191508051906020019080838360005b83811015610f1f578082015181840152602081019050610f04565b50505050905090810190601f168015610f4c5780820380516001836020036101000a031916815260200191505b50838103825284818151815260200191508051906020019080838360005b83811015610f85578082015181840152602081019050610f6a565b50505050905090810190601f168015610fb25780820380516001836020036101000a031916815260200191505b509550505050505060405180910390f35b61100560048036036020811015610fd957600080fd5b81019080803573ffffffffffffffffffffffffffffffffffffffff169060200190929190505050612d57565b6040518082815260200191505060405180910390f35b61105d6004803603602081101561103157600080fd5b81019080803573ffffffffffffffffffffffffffffffffffffffff169060200190929190505050612da2565b6040518082815260200191505060405180910390f35b6111a7600480360361016081101561108a57600080fd5b81019080803573ffffffffffffffffffffffffffffffffffffffff169060200190929190803590602001906401000000008111156110c757600080fd5b8201836020820111156110d957600080fd5b803590602001918460018302840111640100000000831117156110fb57600080fd5b91908080601f016020809104026020016040519081016040528093929190818152602001838380828437600081840152601f19601f820116905080830192505050505050509192919290803590602001909291908035906020019092919080359060200190929190803590602001909291908035906020019092919080359060200190929190803590602001909291908035906020019092919080359060200190929190505050612ded565b005b60606000806000806000808060008973ffffffffffffffffffffffffffffffffffffffff1673ffffffffffffffffffffffffffffffffffffffff16815260200190815260200160002060010160009054906101000a900473ffffffffffffffffffffffffffffffffffffffff1673ffffffffffffffffffffffffffffffffffffffff1673ffffffffffffffffffffffffffffffffffffffff1681526020019081526020016000206002016000808060008a73ffffffffffffffffffffffffffffffffffffffff1673ffffffffffffffffffffffffffffffffffffffff16815260200190815260200160002060010160009054906101000a900473ffffffffffffffffffffffffffffffffffffffff1673ffffffffffffffffffffffffffffffffffffffff1673ffffffffffffffffffffffffffffffffffffffff168152602001908152602001600020600401546000808060008b73ffffffffffffffffffffffffffffffffffffffff1673ffffffffffffffffffffffffffffffffffffffff16815260200190815260200160002060010160009054906101000a900473ffffffffffffffffffffffffffffffffffffffff1673ffffffffffffffffffffffffffffffffffffffff1673ffffffffffffffffffffffffffffffffffffffff168152602001908152602001600020600501546000808060008c73ffffffffffffffffffffffffffffffffffffffff1673ffffffffffffffffffffffffffffffffffffffff16815260200190815260200160002060010160009054906101000a900473ffffffffffffffffffffffffffffffffffffffff1673ffffffffffffffffffffffffffffffffffffffff1673ffffffffffffffffffffffffffffffffffffffff168152602001908152602001600020600601546000808060008d73ffffffffffffffffffffffffffffffffffffffff1673ffffffffffffffffffffffffffffffffffffffff16815260200190815260200160002060010160009054906101000a900473ffffffffffffffffffffffffffffffffffffffff1673ffffffffffffffffffffffffffffffffffffffff1673ffffffffffffffffffffffffffffffffffffffff16815260200190815260200160002060070154848054600181600116156101000203166002900480601f0160208091040260200160405190810160405280929190818152602001828054600181600116156101000203166002900480156115745780601f1061154957610100808354040283529160200191611574565b820191906000526020600020905b81548152906001019060200180831161155757829003601f168201915b505050505094509450945094509450945091939590929450565b896040516020018082805190602001908083835b602083106115c557805182526020820191506020810190506020830392506115a2565b6001836020036101000a038019825116818451168082178552505050505050905001915050604051602081830303815290604052805190602001206000808f73ffffffffffffffffffffffffffffffffffffffff1673ffffffffffffffffffffffffffffffffffffffff168152602001908152602001600020600301604051602001808280546001816001161561010002031660029004801561169f5780601f1061167d57610100808354040283529182019161169f565b820191906000526020600020905b81548152906001019060200180831161168b575b5050915050604051602081830303815290604052805190602001201415611711576040517f08c379a00000000000000000000000000000000000000000000000000000000081526004018080602001828103825260248152602001806131eb6024913960400191505060405180910390fd5b604051806101a001604052808e73ffffffffffffffffffffffffffffffffffffffff1681526020018d73ffffffffffffffffffffffffffffffffffffffff1681526020018c81526020018b81526020018a8152602001898152602001888152602001878152602001868152602001858152602001848152602001838152602001828152506000808f73ffffffffffffffffffffffffffffffffffffffff1673ffffffffffffffffffffffffffffffffffffffff16815260200190815260200160002060008201518160000160006101000a81548173ffffffffffffffffffffffffffffffffffffffff021916908373ffffffffffffffffffffffffffffffffffffffff16021790555060208201518160010160006101000a81548173ffffffffffffffffffffffffffffffffffffffff021916908373ffffffffffffffffffffffffffffffffffffffff160217905550604082015181600201908051906020019061187d929190613120565b50606082015181600301908051906020019061189a929190613120565b506080820151816004015560a0820151816005015560c0820151816006015560e082015181600701556101008201518160080155610120820151816009015561014082015181600a015561016082015181600b015561018082015181600c015590505050505050505050505050505050565b6000816040516020018082805190602001908083835b602083106119455780518252602082019150602081019050602083039250611922565b6001836020036101000a03801982511681845116808217855250505050505090500191505060405160208183030381529060405280519060200120600160008573ffffffffffffffffffffffffffffffffffffffff1673ffffffffffffffffffffffffffffffffffffffff1681526020019081526020016000206002016040516020018082805460018160011615610100020316600290048015611a205780601f106119fe576101008083540402835291820191611a20565b820191906000526020600020905b815481529060010190602001808311611a0c575b5050915050604051602081830303815290604052805190602001201415611a4a5760019050611a4f565b600090505b92915050565b806040516020018082805190602001908083835b60208310611a8c5780518252602082019150602081019050602083039250611a69565b6001836020036101000a03801982511681845116808217855250505050505090500191505060405160208183030381529060405280519060200120600160008573ffffffffffffffffffffffffffffffffffffffff1673ffffffffffffffffffffffffffffffffffffffff1681526020019081526020016000206002016040516020018082805460018160011615610100020316600290048015611b675780601f10611b45576101008083540402835291820191611b67565b820191906000526020600020905b815481529060010190602001808311611b53575b5050915050604051602081830303815290604052805190602001201415611bd9576040517f08c379a00000000000000000000000000000000000000000000000000000000081526004018080602001828103825260258152602001806131c66025913960400191505060405180910390fd5b60405180606001604052808473ffffffffffffffffffffffffffffffffffffffff16815260200183815260200182815250600160008573ffffffffffffffffffffffffffffffffffffffff1673ffffffffffffffffffffffffffffffffffffffff16815260200190815260200160002060008201518160000160006101000a81548173ffffffffffffffffffffffffffffffffffffffff021916908373ffffffffffffffffffffffffffffffffffffffff1602179055506020820151816001019080519060200190611cac929190613120565b506040820151816002019080519060200190611cc9929190613120565b50905050505050565b6000816040516020018082805190602001908083835b60208310611d0b5780518252602082019150602081019050602083039250611ce8565b6001836020036101000a038019825116818451168082178552505050505050905001915050604051602081830303815290604052805190602001206000808573ffffffffffffffffffffffffffffffffffffffff1673ffffffffffffffffffffffffffffffffffffffff1681526020019081526020016000206003016040516020018082805460018160011615610100020316600290048015611de55780601f10611dc3576101008083540402835291820191611de5565b820191906000526020600020905b815481529060010190602001808311611dd1575b5050915050604051602081830303815290604052805190602001201415611e0f5760019050611e14565b600090505b92915050565b6000806000806000808673ffffffffffffffffffffffffffffffffffffffff1673ffffffffffffffffffffffffffffffffffffffff168152602001908152602001600020600901546000808773ffffffffffffffffffffffffffffffffffffffff1673ffffffffffffffffffffffffffffffffffffffff168152602001908152602001600020600a01546000808873ffffffffffffffffffffffffffffffffffffffff1673ffffffffffffffffffffffffffffffffffffffff168152602001908152602001600020600b01546000808973ffffffffffffffffffffffffffffffffffffffff1673ffffffffffffffffffffffffffffffffffffffff168152602001908152602001600020600c015493509350935093509193509193565b60008060008060008060008060008973ffffffffffffffffffffffffffffffffffffffff1673ffffffffffffffffffffffffffffffffffffffff16815260200190815260200160002060010160009054906101000a900473ffffffffffffffffffffffffffffffffffffffff1673ffffffffffffffffffffffffffffffffffffffff1673ffffffffffffffffffffffffffffffffffffffff168152602001908152602001600020600801546000808060008a73ffffffffffffffffffffffffffffffffffffffff1673ffffffffffffffffffffffffffffffffffffffff16815260200190815260200160002060010160009054906101000a900473ffffffffffffffffffffffffffffffffffffffff1673ffffffffffffffffffffffffffffffffffffffff1673ffffffffffffffffffffffffffffffffffffffff168152602001908152602001600020600901546000808060008b73ffffffffffffffffffffffffffffffffffffffff1673ffffffffffffffffffffffffffffffffffffffff16815260200190815260200160002060010160009054906101000a900473ffffffffffffffffffffffffffffffffffffffff1673ffffffffffffffffffffffffffffffffffffffff1673ffffffffffffffffffffffffffffffffffffffff168152602001908152602001600020600a01546000808060008c73ffffffffffffffffffffffffffffffffffffffff1673ffffffffffffffffffffffffffffffffffffffff16815260200190815260200160002060010160009054906101000a900473ffffffffffffffffffffffffffffffffffffffff1673ffffffffffffffffffffffffffffffffffffffff1673ffffffffffffffffffffffffffffffffffffffff168152602001908152602001600020600b01546000808060008d73ffffffffffffffffffffffffffffffffffffffff1673ffffffffffffffffffffffffffffffffffffffff16815260200190815260200160002060010160009054906101000a900473ffffffffffffffffffffffffffffffffffffffff1673ffffffffffffffffffffffffffffffffffffffff1673ffffffffffffffffffffffffffffffffffffffff168152602001908152602001600020600c01549450945094509450945091939590929450565b6000816040516020018082805190602001908083835b602083106122ba5780518252602082019150602081019050602083039250612297565b6001836020036101000a03801982511681845116808217855250505050505090500191505060405160208183030381529060405280519060200120600260008573ffffffffffffffffffffffffffffffffffffffff1673ffffffffffffffffffffffffffffffffffffffff16815260200190815260200160002060020160405160200180828054600181600116156101000203166002900480156123955780601f10612373576101008083540402835291820191612395565b820191906000526020600020905b815481529060010190602001808311612381575b50509150506040516020818303038152906040528051906020012014156123bf57600190506123c4565b600090505b92915050565b60006020528060005260406000206000915090508060000160009054906101000a900473ffffffffffffffffffffffffffffffffffffffff16908060010160009054906101000a900473ffffffffffffffffffffffffffffffffffffffff1690806002018054600181600116156101000203166002900480601f0160208091040260200160405190810160405280929190818152602001828054600181600116156101000203166002900480156124c25780601f10612497576101008083540402835291602001916124c2565b820191906000526020600020905b8154815290600101906020018083116124a557829003601f168201915b505050505090806003018054600181600116156101000203166002900480601f0160208091040260200160405190810160405280929190818152602001828054600181600116156101000203166002900480156125605780601f1061253557610100808354040283529160200191612560565b820191906000526020600020905b81548152906001019060200180831161254357829003601f168201915b50505050509080600401549080600501549080600601549080600701549080600801549080600901549080600a01549080600b01549080600c015490508d565b806040516020018082805190602001908083835b602083106125d757805182526020820191506020810190506020830392506125b4565b6001836020036101000a03801982511681845116808217855250505050505090500191505060405160208183030381529060405280519060200120600260008573ffffffffffffffffffffffffffffffffffffffff1673ffffffffffffffffffffffffffffffffffffffff16815260200190815260200160002060020160405160200180828054600181600116156101000203166002900480156126b25780601f106126905761010080835404028352918201916126b2565b820191906000526020600020905b81548152906001019060200180831161269e575b5050915050604051602081830303815290604052805190602001201415612724576040517f08c379a00000000000000000000000000000000000000000000000000000000081526004018080602001828103825260258152602001806131c66025913960400191505060405180910390fd5b60405180606001604052808473ffffffffffffffffffffffffffffffffffffffff16815260200183815260200182815250600260008573ffffffffffffffffffffffffffffffffffffffff1673ffffffffffffffffffffffffffffffffffffffff16815260200190815260200160002060008201518160000160006101000a81548173ffffffffffffffffffffffffffffffffffffffff021916908373ffffffffffffffffffffffffffffffffffffffff16021790555060208201518160010190805190602001906127f7929190613120565b506040820151816002019080519060200190612814929190613120565b50905050505050565b606060008060008060008060008873ffffffffffffffffffffffffffffffffffffffff1673ffffffffffffffffffffffffffffffffffffffff1681526020019081526020016000206002016000808973ffffffffffffffffffffffffffffffffffffffff1673ffffffffffffffffffffffffffffffffffffffff168152602001908152602001600020600401546000808a73ffffffffffffffffffffffffffffffffffffffff1673ffffffffffffffffffffffffffffffffffffffff168152602001908152602001600020600501546000808b73ffffffffffffffffffffffffffffffffffffffff1673ffffffffffffffffffffffffffffffffffffffff168152602001908152602001600020600601546000808c73ffffffffffffffffffffffffffffffffffffffff1673ffffffffffffffffffffffffffffffffffffffff168152602001908152602001600020600701546000808d73ffffffffffffffffffffffffffffffffffffffff1673ffffffffffffffffffffffffffffffffffffffff16815260200190815260200160002060080154858054600181600116156101000203166002900480601f016020809104026020016040519081016040528092919081815260200182805460018160011615610100020316600290048015612a475780601f10612a1c57610100808354040283529160200191612a47565b820191906000526020600020905b815481529060010190602001808311612a2a57829003601f168201915b5050505050955095509550955095509550955091939550919395565b60016020528060005260406000206000915090508060000160009054906101000a900473ffffffffffffffffffffffffffffffffffffffff1690806001018054600181600116156101000203166002900480601f016020809104026020016040519081016040528092919081815260200182805460018160011615610100020316600290048015612b355780601f10612b0a57610100808354040283529160200191612b35565b820191906000526020600020905b815481529060010190602001808311612b1857829003601f168201915b505050505090806002018054600181600116156101000203166002900480601f016020809104026020016040519081016040528092919081815260200182805460018160011615610100020316600290048015612bd35780601f10612ba857610100808354040283529160200191612bd3565b820191906000526020600020905b815481529060010190602001808311612bb657829003601f168201915b5050505050905083565b60026020528060005260406000206000915090508060000160009054906101000a900473ffffffffffffffffffffffffffffffffffffffff1690806001018054600181600116156101000203166002900480601f016020809104026020016040519081016040528092919081815260200182805460018160011615610100020316600290048015612caf5780601f10612c8457610100808354040283529160200191612caf565b820191906000526020600020905b815481529060010190602001808311612c9257829003601f168201915b505050505090806002018054600181600116156101000203166002900480601f016020809104026020016040519081016040528092919081815260200182805460018160011615610100020316600290048015612d4d5780601f10612d2257610100808354040283529160200191612d4d565b820191906000526020600020905b815481529060010190602001808311612d3057829003601f168201915b5050505050905083565b60008060008373ffffffffffffffffffffffffffffffffffffffff1673ffffffffffffffffffffffffffffffffffffffff168152602001908152602001600020600401549050919050565b60008060008373ffffffffffffffffffffffffffffffffffffffff1673ffffffffffffffffffffffffffffffffffffffff168152602001908152602001600020600401549050919050565b604051806101a001604052808c73ffffffffffffffffffffffffffffffffffffffff1681526020016000808e73ffffffffffffffffffffffffffffffffffffffff1673ffffffffffffffffffffffffffffffffffffffff16815260200190815260200160002060010160009054906101000a900473ffffffffffffffffffffffffffffffffffffffff1673ffffffffffffffffffffffffffffffffffffffff1681526020018b81526020016000808e73ffffffffffffffffffffffffffffffffffffffff1673ffffffffffffffffffffffffffffffffffffffff1681526020019081526020016000206003018054600181600116156101000203166002900480601f016020809104026020016040519081016040528092919081815260200182805460018160011615610100020316600290048015612f6d5780601f10612f4257610100808354040283529160200191612f6d565b820191906000526020600020905b815481529060010190602001808311612f5057829003601f168201915b505050505081526020018a8152602001898152602001888152602001878152602001868152602001858152602001848152602001838152602001828152506000808d73ffffffffffffffffffffffffffffffffffffffff1673ffffffffffffffffffffffffffffffffffffffff16815260200190815260200160002060008201518160000160006101000a81548173ffffffffffffffffffffffffffffffffffffffff021916908373ffffffffffffffffffffffffffffffffffffffff16021790555060208201518160010160006101000a81548173ffffffffffffffffffffffffffffffffffffffff021916908373ffffffffffffffffffffffffffffffffffffffff1602179055506040820151816002019080519060200190613093929190613120565b5060608201518160030190805190602001906130b0929190613120565b506080820151816004015560a0820151816005015560c0820151816006015560e082015181600701556101008201518160080155610120820151816009015561014082015181600a015561016082015181600b015561018082015181600c01559050505050505050505050505050565b828054600181600116156101000203166002900490600052602060002090601f016020900481019282601f1061316157805160ff191683800117855561318f565b8280016001018555821561318f579182015b8281111561318e578251825591602001919060010190613173565b5b50905061319c91906131a0565b5090565b6131c291905b808211156131be5760008160009055506001016131a6565b5090565b9056fe796f752061726520616c7265616479207369676e656420757020617320686f73706974616c796f752061726520616c7265616479207369676e65642075702061732070617469656e74a265627a7a72315820bc5a050c033876f64d2d4d80c3fdd44725fc3287939ab5fb7b92e973208cdbb664736f6c634300050d0032",
  "source": "pragma solidity ^0.5.13;\n\ncontract SimpleStorage\n{\n\nstruct patient_info \n{\n\n    address owner;\n    address relation;\n    string name;\n    string password;\n    uint age;\n    \n    uint bp;\n    uint heart_attack;\n    uint diabetes_level;\n    uint gender;\n    uint oxidation;\n    uint cancer;\n    uint covid;\n    uint256 updated_date; \n\n}\nstruct hospital_info\n{\n    address owner;\n    string name;\n    string password;\n}\nstruct lab_info\n{\n    address owner;\n    string name;\n    string password;\n}\n\nmapping(address => patient_info) public my_patient_struct;\nmapping(address => hospital_info) public my_hospital_struct;\nmapping(address => lab_info) public my_lab_struct;\n\nfunction signup_patients (address owner,address relation,string memory name,string memory password,uint age,uint bp,uint heart_attack,uint diabetes_level,uint gender,uint oxidation,uint cancer,uint covid, uint256 updated_date) public \n\n{   \n    require (keccak256(abi.encodePacked(my_patient_struct[owner].password )) != keccak256(abi.encodePacked(password)),\"you are already signed up as patient\");\n    my_patient_struct[owner] = patient_info(owner,relation,name,password,age,bp, heart_attack,diabetes_level,gender,oxidation,cancer,covid,updated_date);\n\n}\n\nfunction signup_hospitals (address owner,string memory name,string memory password) public \n{   \n    require (keccak256(abi.encodePacked(my_hospital_struct[owner].password )) != keccak256(abi.encodePacked(password)),\"you are already signed up as hospital\");\n    my_hospital_struct[owner] = hospital_info(owner,name,password);\n}\nfunction signup_labs (address owner,string memory name,string memory password) public \n{   \n    require (keccak256(abi.encodePacked(my_lab_struct[owner].password )) != keccak256(abi.encodePacked(password)),\"you are already signed up as hospital\");\n    my_lab_struct[owner] = lab_info(owner,name,password);\n}\n\nfunction patient_login_validate (address ad,string memory pwd) public view returns(uint)\n{\n    if (keccak256(abi.encodePacked(my_patient_struct[ad].password )) == keccak256(abi.encodePacked(pwd)))\n    {\n    return 1;\n    }\n    else\n    {\n        return 0;\n    }\n}\n\nfunction hospital_login_validate (address ad,string memory pwd) public view returns(uint)\n{\n    if (keccak256(abi.encodePacked(my_hospital_struct[ad].password )) == keccak256(abi.encodePacked(pwd)))\n    {\n    return 1;\n    }\n    else\n    {\n        return 0;\n    }\n}\n\nfunction lab_login_validate (address ad,string memory pwd) public view returns(uint)\n{\n    if (keccak256(abi.encodePacked(my_lab_struct[ad].password )) == keccak256(abi.encodePacked(pwd)))\n    {\n    return 1;\n    }\n    else\n    {\n        return 0;\n    }\n}\n\nfunction view_patient_info_by_owner_part1 (address ad) public view returns(string memory,uint,uint,uint,uint,uint)\n{\n\n    \n    return (my_patient_struct[ad].name,my_patient_struct[ad].age,my_patient_struct[ad].bp,my_patient_struct[ad].heart_attack,my_patient_struct[ad].diabetes_level,my_patient_struct[ad].gender);\n    \n\n}\nfunction view_patient_info_by_owner_part2 (address ad) public view returns(uint,uint,uint,uint256)\n{\n\n    \n    return (my_patient_struct[ad].oxidation,my_patient_struct[ad].cancer,my_patient_struct[ad].covid,my_patient_struct[ad].updated_date);\n    \n}\nfunction view_patient_info_by_relation_part1 (address ad) public view returns(string memory,uint,uint,uint,uint)\n{\n\n    \n    return (my_patient_struct[my_patient_struct[ad].relation].name,my_patient_struct[my_patient_struct[ad].relation].age,my_patient_struct[my_patient_struct[ad].relation].bp,my_patient_struct[my_patient_struct[ad].relation].heart_attack,my_patient_struct[my_patient_struct[ad].relation].diabetes_level);\n    \n\n}\n\nfunction view_patient_info_by_relation_part2 (address ad) public view returns(uint,uint,uint,uint,uint256)\n{\n\n    \n    return (my_patient_struct[my_patient_struct[ad].relation].gender,my_patient_struct[my_patient_struct[ad].relation].oxidation,my_patient_struct[my_patient_struct[ad].relation].cancer,my_patient_struct[my_patient_struct[ad].relation].covid,my_patient_struct[my_patient_struct[ad].relation].updated_date);\n    \n\n\n}\n\nfunction view_patient_by_hospital (address ad) public view returns(uint)\n{\n\n    return my_patient_struct[ad].age;\n   \n}\n\n\nfunction view_patient_by_lab (address ad) public view returns(uint)\n{\n\n    return my_patient_struct[ad].age;\n   \n}\n\n\nfunction update_patients (address owner,string memory name,uint age,uint bp,uint heart_attack,uint diabetes_level,uint gender,uint oxidation,uint cancer,uint covid, uint256 updated_date) public \n\n{   \n    my_patient_struct[owner] = patient_info(owner,my_patient_struct[owner].relation,name,my_patient_struct[owner].password,age,bp, heart_attack,diabetes_level,gender,oxidation,cancer,covid,updated_date);\n\n}\n\n\n}\n\n\n",
  "sourcePath": "C:/Users/anish/OneDrive/Desktop/MEDCHAIN NORMAL M_1_WOT_node/contracts/SimpleStorage.sol",
  "compiler": {
    "name": "solc",
    "version": "0.5.13+commit.5b0b510c.Emscripten.clang"
  },
  "schemaVersion": "3.0.20",
  "updatedAt": "2023-01-25T08:12:30.074Z",
  "networkType": "ethereum",
  "devdoc": {
    "methods": {}
  },
  "userdoc": {
    "methods": {}
  }
}